{"result":{"hex":"0100000001c2b531a5511c7820cae43e750c7680799afc1ee105d9d9b5b125798e9333b803010000006b483045022100bec73d4a4394c758ff51c9f9961941dfc234be5c4b094f3e08e0848402b0d44d022074e3c9225d607521e2a31ece550b13c8ec6d217ed92079c488c407d79931ea1701210316cff587a01a2736d5e12e53551b18d73780b83c3bfb4fcf209c869b11b6415effffffff0220a10700000000001976a914a82e489066cc8172d1afaa84b96fa9613cd0955688ac7d1c9749000000001976a914c01a7ca16b47be50cbdbc60724f701d52d75156688ac00000000","txid":"d9afd460b0a5e065fdd87bf97cb1843a29ea588c59daabd1609794e8166bb75f","version":1,"locktime":0,"vin":[{"txid":"03b833938e7925b1b5d9d905e11efc9a7980760c753ee4ca20781c51a531b5c2","vout":1,"scriptSig":{"asm":"3045022100bec73d4a4394c758ff51c9f9961941dfc234be5c4b094f3e08e0848402b0d44d022074e3c9225d607521e2a31ece550b13c8ec6d217ed92079c488c407d79931ea1701
0316cff587a01a2736d5e12e53551b18d73780b83c3bfb4fcf209c869b11b6415e","hex":"483045022100bec73d4a4394c758ff51c9f9961941dfc234be5c4b094f3e08e0848402b0d44d022074e3c9225d607521e2a31ece550b13c8ec6d217ed92079c488c407d79931ea1701210316cff587a01a2736d5e12e53551b18d73780b83c3bfb4fcf209c869b11b6415e"},"sequence":4294967295}],"vout":[{"value":0.00500000,"n":0,"scriptPubKey":{"asm":"OP_DUP
OP_HASH160 a82e489066cc8172d1afaa84b96fa9613cd09556 OP_EQUALVERIFY
OP_CHECKSIG","hex":"76a914a82e489066cc8172d1afaa84b96fa9613cd0955688ac","reqSigs":1,"type":"pubkeyhash","addresses":["mvrDG7Ts6Mq9ejhZxdsQLjbScycVaktqsg"]}},{"value":12.34639997,"n":1,"scriptPubKey":{"asm":"OP_DUP
OP_HASH160 c01a7ca16b47be50cbdbc60724f701d52d751566 OP_EQUALVERIFY
OP_CHECKSIG","hex":"76a914c01a7ca16b47be50cbdbc60724f701d52d75156688ac","reqSigs":1,"type":"pubkeyhash","addresses":["my2hmDuD9XjmtQWFu9HyyNAsE5WGSDBKpQ"]}}],"blockhash":"000000000000f0292cc4613b146aa99f2b6df820d47d43b01f81d58fb4fce474","confirmations":1648,"time":1436904928,"blocktime":1436904928},"error":null,"id":"jsonrpc"}
