{"result":{"hex":"0100000001aca38eb3f36c016905640109ab8d0ffab0096ad593f11a5b3cef0f49dd8c0e89000000006a4730440220365e2375c84c5079b32579921b174decd37c18bb8f348fb482e50f8924e4490b022072198be9e61696ac8884b4d51dfa4097d73ba48804bb004841db27e88890f6cd012103267b8160b27c359d640f19eab29fc08fa39f10b253fd28608f2555272f60b9b1ffffffff0208ac833b000000001976a914dbb90fb145460968c3aabefadfe96cfd36af255288aca0860100000000001976a914badcbfae4d83a52dc2c8f68605663adc9d4922a688ac00000000","txid":"5bd72a4aa7818f47ac8943e3e17519be00c46530760860e608d898d728b9d46e","version":1,"locktime":0,"vin":[{"txid":"890e8cdd490fef3c5b1af193d56a09b0fa0f8dab0901640569016cf3b38ea3ac","vout":0,"scriptSig":{"asm":"30440220365e2375c84c5079b32579921b174decd37c18bb8f348fb482e50f8924e4490b022072198be9e61696ac8884b4d51dfa4097d73ba48804bb004841db27e88890f6cd01
03267b8160b27c359d640f19eab29fc08fa39f10b253fd28608f2555272f60b9b1","hex":"4730440220365e2375c84c5079b32579921b174decd37c18bb8f348fb482e50f8924e4490b022072198be9e61696ac8884b4d51dfa4097d73ba48804bb004841db27e88890f6cd012103267b8160b27c359d640f19eab29fc08fa39f10b253fd28608f2555272f60b9b1"},"sequence":4294967295}],"vout":[{"value":9.98485000,"n":0,"scriptPubKey":{"asm":"OP_DUP
OP_HASH160 dbb90fb145460968c3aabefadfe96cfd36af2552 OP_EQUALVERIFY
OP_CHECKSIG","hex":"76a914dbb90fb145460968c3aabefadfe96cfd36af255288ac","reqSigs":1,"type":"pubkeyhash","addresses":["n1YjyMDRPMjKnzgeqN7PEtCPE11bZhgdSR"]}},{"value":0.00100000,"n":1,"scriptPubKey":{"asm":"OP_DUP
OP_HASH160 badcbfae4d83a52dc2c8f68605663adc9d4922a6 OP_EQUALVERIFY
OP_CHECKSIG","hex":"76a914badcbfae4d83a52dc2c8f68605663adc9d4922a688ac","reqSigs":1,"type":"pubkeyhash","addresses":["mxYzRdJfPk8PcaKSsSzNkX85mMfNcr2CGr"]}}],"blockhash":"0000000000002b571261db3b0bd06578194267de10d70f064f031ee7cca10649","confirmations":553,"time":1436981059,"blocktime":1436981059},"error":null,"id":"jsonrpc"}
