{"result":{"hex":"0100000001a56b4e3f764b5bd786934c7dbd292bc9aa98e4d6079eb54d0fad7eee579ded14010000006a47304402204c64e396b11b0414fc86d7ebccacf9eabc51e3b82f86a5b23fd3c3afb0d4c6a3022055ac025c75e4bde7e8055c830c04fb410ecb16fcf828b54a5d3769b12b049d4201210316cff587a01a2736d5e12e53551b18d73780b83c3bfb4fcf209c869b11b6415effffffff02a0860100000000001976a9143988c98842c7db8d4be21c0d975b1202707d423388acade49e49000000001976a914c01a7ca16b47be50cbdbc60724f701d52d75156688ac00000000","txid":"03b833938e7925b1b5d9d905e11efc9a7980760c753ee4ca20781c51a531b5c2","version":1,"locktime":0,"vin":[{"txid":"14ed9d57ee7ead0f4db59e07d6e498aac92b29bd7d4c9386d75b4b763f4e6ba5","vout":1,"scriptSig":{"asm":"304402204c64e396b11b0414fc86d7ebccacf9eabc51e3b82f86a5b23fd3c3afb0d4c6a3022055ac025c75e4bde7e8055c830c04fb410ecb16fcf828b54a5d3769b12b049d4201
0316cff587a01a2736d5e12e53551b18d73780b83c3bfb4fcf209c869b11b6415e","hex":"47304402204c64e396b11b0414fc86d7ebccacf9eabc51e3b82f86a5b23fd3c3afb0d4c6a3022055ac025c75e4bde7e8055c830c04fb410ecb16fcf828b54a5d3769b12b049d4201210316cff587a01a2736d5e12e53551b18d73780b83c3bfb4fcf209c869b11b6415e"},"sequence":4294967295}],"vout":[{"value":0.00100000,"n":0,"scriptPubKey":{"asm":"OP_DUP
OP_HASH160 3988c98842c7db8d4be21c0d975b1202707d4233 OP_EQUALVERIFY
OP_CHECKSIG","hex":"76a9143988c98842c7db8d4be21c0d975b1202707d423388ac","reqSigs":1,"type":"pubkeyhash","addresses":["mkmAg8ccENMVRcDvZtnSFyzKxU4Eqm1U3W"]}},{"value":12.35149997,"n":1,"scriptPubKey":{"asm":"OP_DUP
OP_HASH160 c01a7ca16b47be50cbdbc60724f701d52d751566 OP_EQUALVERIFY
OP_CHECKSIG","hex":"76a914c01a7ca16b47be50cbdbc60724f701d52d75156688ac","reqSigs":1,"type":"pubkeyhash","addresses":["my2hmDuD9XjmtQWFu9HyyNAsE5WGSDBKpQ"]}}],"blockhash":"0000000000c8338f69c8682683509c37330e331ec627067d2c62a3868ef2e52f","confirmations":1833,"time":1436893466,"blocktime":1436893466},"error":null,"id":"jsonrpc"}
