{"result":{"hex":"010000000172a55e11919beffada423cf1933f2a40e009a0de686c9cda84306d8cbd746a80010000006b483045022100ddea1562e79fdc63ad2786bcabfffa8db5f01eac9dc8eb1510702df291a6801f02203d39a32bddf4a535dd6c07a14f1650312efb805fffc3662896e6cacc5e87cbc701210316cff587a01a2736d5e12e53551b18d73780b83c3bfb4fcf209c869b11b6415effffffff0220a10700000000001976a9143001b0b2e2941eeca0e71b23399598dcd37ce48088ac9fb70124000000001976a914c01a7ca16b47be50cbdbc60724f701d52d75156688ac00000000","txid":"0c8a9a0c31d19c02deabb0faee6860368fd194bf549cf63fccdbffda41c25354","version":1,"locktime":0,"vin":[{"txid":"806a74bd8c6d3084da9c6c68dea009e0402a3f93f13c42dafaef9b91115ea572","vout":1,"scriptSig":{"asm":"3045022100ddea1562e79fdc63ad2786bcabfffa8db5f01eac9dc8eb1510702df291a6801f02203d39a32bddf4a535dd6c07a14f1650312efb805fffc3662896e6cacc5e87cbc701
0316cff587a01a2736d5e12e53551b18d73780b83c3bfb4fcf209c869b11b6415e","hex":"483045022100ddea1562e79fdc63ad2786bcabfffa8db5f01eac9dc8eb1510702df291a6801f02203d39a32bddf4a535dd6c07a14f1650312efb805fffc3662896e6cacc5e87cbc701210316cff587a01a2736d5e12e53551b18d73780b83c3bfb4fcf209c869b11b6415e"},"sequence":4294967295}],"vout":[{"value":0.00500000,"n":0,"scriptPubKey":{"asm":"OP_DUP
OP_HASH160 3001b0b2e2941eeca0e71b23399598dcd37ce480 OP_EQUALVERIFY
OP_CHECKSIG","hex":"76a9143001b0b2e2941eeca0e71b23399598dcd37ce48088ac","reqSigs":1,"type":"pubkeyhash","addresses":["mjtnkhciqGTHZE3uLJC12B2qE2DQ5495p3"]}},{"value":6.04092319,"n":1,"scriptPubKey":{"asm":"OP_DUP
OP_HASH160 c01a7ca16b47be50cbdbc60724f701d52d751566 OP_EQUALVERIFY
OP_CHECKSIG","hex":"76a914c01a7ca16b47be50cbdbc60724f701d52d75156688ac","reqSigs":1,"type":"pubkeyhash","addresses":["my2hmDuD9XjmtQWFu9HyyNAsE5WGSDBKpQ"]}}],"blockhash":"000000000001bdf0521dbe683df7a81cef1eb2c9c8441c63a775403f977d3c87","confirmations":1873,"time":1436889744,"blocktime":1436889744},"error":null,"id":"jsonrpc"}
