{"result":{"hex":"0100000001f84b734e7b663c9569640800bfb6bd8c7a7795f3b2b41469655d9a895a4f395a010000006b48304502210080bfcf68c2c20c4b5671993d5eb9b9e71258f66772368c2cfe7a938c7821601c02207a585677b84e06a9e765f1fce3a03b25baf358a63f0bc6b97cccc41521b2f48601210316cff587a01a2736d5e12e53551b18d73780b83c3bfb4fcf209c869b11b6415effffffff0288130000000000001976a9142ac4a8b27599b59f7afd22fefea187c109403f4788ac48798410000000001976a914c01a7ca16b47be50cbdbc60724f701d52d75156688ac00000000","txid":"f948600a52719ec63947bd47105411c2cb032bda91b08b25bb7b1de22f1f7458","version":1,"locktime":0,"vin":[{"txid":"5a394f5a899a5d656914b4b2f395777a8cbdb6bf00086469953c667b4e734bf8","vout":1,"scriptSig":{"asm":"304502210080bfcf68c2c20c4b5671993d5eb9b9e71258f66772368c2cfe7a938c7821601c02207a585677b84e06a9e765f1fce3a03b25baf358a63f0bc6b97cccc41521b2f48601
0316cff587a01a2736d5e12e53551b18d73780b83c3bfb4fcf209c869b11b6415e","hex":"48304502210080bfcf68c2c20c4b5671993d5eb9b9e71258f66772368c2cfe7a938c7821601c02207a585677b84e06a9e765f1fce3a03b25baf358a63f0bc6b97cccc41521b2f48601210316cff587a01a2736d5e12e53551b18d73780b83c3bfb4fcf209c869b11b6415e"},"sequence":4294967295}],"vout":[{"value":0.00005000,"n":0,"scriptPubKey":{"asm":"OP_DUP
OP_HASH160 2ac4a8b27599b59f7afd22fefea187c109403f47 OP_EQUALVERIFY
OP_CHECKSIG","hex":"76a9142ac4a8b27599b59f7afd22fefea187c109403f4788ac","reqSigs":1,"type":"pubkeyhash","addresses":["mjR6GDUXVwCdwFPqLQjNunnEiyWxyqtCHA"]}},{"value":2.77117256,"n":1,"scriptPubKey":{"asm":"OP_DUP
OP_HASH160 c01a7ca16b47be50cbdbc60724f701d52d751566 OP_EQUALVERIFY
OP_CHECKSIG","hex":"76a914c01a7ca16b47be50cbdbc60724f701d52d75156688ac","reqSigs":1,"type":"pubkeyhash","addresses":["my2hmDuD9XjmtQWFu9HyyNAsE5WGSDBKpQ"]}}],"blockhash":"000000000001665878d387a562bdca52cfdea847a9aae823597b9832445c8f3f","confirmations":1788,"time":1436896022,"blocktime":1436896022},"error":null,"id":"jsonrpc"}
