{"result":{"hex":"010000000198930d1cb28f0dcf21c594bfbdde49bb4ccbb29f3736aca617135a2bd0db6676000000006a473044022052dc3fd4dece108734ce68f32c9eeb51f1769ca258af498fba601b33f9b77a7a022038c57f029e14027efbf346f110c848fc10cccad9910a89f9f6a267d8a1f1695b012103cd9359b35235a6aa4bbb3f6f477197fdacc1281cdda28cbd56c25ada7b3b323fffffffff02d08a913b000000001976a914a06e352ba2d43ba95f5fdaa2d873f695be40906e88aca08601000000000017a914b10b41ca248ab47e98dfdc235935c621559d67098700000000","txid":"8505c663d0414b678827eed85ba9e7652e616c19ff1be871f6b083d5ed400a20","version":1,"locktime":0,"vin":[{"txid":"7666dbd02b5a1317a6ac36379fb2cb4cbb49debdbf94c521cf0d8fb21c0d9398","vout":0,"scriptSig":{"asm":"3044022052dc3fd4dece108734ce68f32c9eeb51f1769ca258af498fba601b33f9b77a7a022038c57f029e14027efbf346f110c848fc10cccad9910a89f9f6a267d8a1f1695b01
03cd9359b35235a6aa4bbb3f6f477197fdacc1281cdda28cbd56c25ada7b3b323f","hex":"473044022052dc3fd4dece108734ce68f32c9eeb51f1769ca258af498fba601b33f9b77a7a022038c57f029e14027efbf346f110c848fc10cccad9910a89f9f6a267d8a1f1695b012103cd9359b35235a6aa4bbb3f6f477197fdacc1281cdda28cbd56c25ada7b3b323f"},"sequence":4294967295}],"vout":[{"value":9.99394000,"n":0,"scriptPubKey":{"asm":"OP_DUP
OP_HASH160 a06e352ba2d43ba95f5fdaa2d873f695be40906e OP_EQUALVERIFY
OP_CHECKSIG","hex":"76a914a06e352ba2d43ba95f5fdaa2d873f695be40906e88ac","reqSigs":1,"type":"pubkeyhash","addresses":["mv9ES7SmQQQ8dpMravBKsLWukgxU2DXfFs"]}},{"value":0.00100000,"n":1,"scriptPubKey":{"asm":"OP_HASH160
b10b41ca248ab47e98dfdc235935c621559d6709
OP_EQUAL","hex":"a914b10b41ca248ab47e98dfdc235935c621559d670987","reqSigs":1,"type":"scripthash","addresses":["2N9PM5PRLmCCWroZwFD56gJPCnKFpTVrXvS"]}}],"blockhash":"00000000000057c385e8c22ea4ce0458a92dabe7a12c799476003f715f966f29","confirmations":1966,"time":1436883358,"blocktime":1436883358},"error":null,"id":"jsonrpc"}
