{"result":{"hex":"01000000010c0bd04488b2cfb3c2bfcc96620afd45040245e2b39845572391d1b43784d8d1010000006a473044022019f0199680a19abe30e13b15813b3f89478621b98bfe908e15f481e1a8a50ace02205ea3a0020ffe9f59a05eaa8a4bdfe7198954690a47b1516a21d263a181f48d4801210316cff587a01a2736d5e12e53551b18d73780b83c3bfb4fcf209c869b11b6415effffffff0250c30000000000001976a9146295d161b3bd9bc1e5b6c6dae97d5e02849a6d1f88ac2cf9f512000000001976a914c01a7ca16b47be50cbdbc60724f701d52d75156688ac00000000","txid":"242ff59e8da7492b7c2d91dba705115734d44b67fb58321269add13914c4f244","version":1,"locktime":0,"vin":[{"txid":"d1d88437b4d19123574598b3e245020445fd0a6296ccbfc2b3cfb28844d00b0c","vout":1,"scriptSig":{"asm":"3044022019f0199680a19abe30e13b15813b3f89478621b98bfe908e15f481e1a8a50ace02205ea3a0020ffe9f59a05eaa8a4bdfe7198954690a47b1516a21d263a181f48d4801
0316cff587a01a2736d5e12e53551b18d73780b83c3bfb4fcf209c869b11b6415e","hex":"473044022019f0199680a19abe30e13b15813b3f89478621b98bfe908e15f481e1a8a50ace02205ea3a0020ffe9f59a05eaa8a4bdfe7198954690a47b1516a21d263a181f48d4801210316cff587a01a2736d5e12e53551b18d73780b83c3bfb4fcf209c869b11b6415e"},"sequence":4294967295}],"vout":[{"value":0.00050000,"n":0,"scriptPubKey":{"asm":"OP_DUP
OP_HASH160 6295d161b3bd9bc1e5b6c6dae97d5e02849a6d1f OP_EQUALVERIFY
OP_CHECKSIG","hex":"76a9146295d161b3bd9bc1e5b6c6dae97d5e02849a6d1f88ac","reqSigs":1,"type":"pubkeyhash","addresses":["mpWDzPBx1kU4iAhzFUcjmMjzTHBiBYt5gp"]}},{"value":3.18109996,"n":1,"scriptPubKey":{"asm":"OP_DUP
OP_HASH160 c01a7ca16b47be50cbdbc60724f701d52d751566 OP_EQUALVERIFY
OP_CHECKSIG","hex":"76a914c01a7ca16b47be50cbdbc60724f701d52d75156688ac","reqSigs":1,"type":"pubkeyhash","addresses":["my2hmDuD9XjmtQWFu9HyyNAsE5WGSDBKpQ"]}}],"blockhash":"000000000001397acff6334bd35d010044148f6366509deb2610cf1bc3bc8d60","confirmations":1803,"time":1436894790,"blocktime":1436894790},"error":null,"id":"jsonrpc"}
