{"result":{"hex":"01000000016c5520c0f7a5ba29b77a63f9f9334c059a4badfad83ae1457af69ac147a3f99a000000006b48304502210087156fd56f696c05062ae98a9f936ff6fc02dfe3cf9004242814397c356b91cd02200b1a2722ea959985a1cb1bcf1aaaad418831370c52fefc6427a1af7d438d0757012103e75c101452a659c924ea505013f2d799058aeb82acd2c1427c7660a4d2a24f31ffffffff029036853b000000001976a914a41cdb457972e197e82ab67f42983d5d7f11e48088aca08601000000000017a91414ea6747c79c9c7388eca6c029e6cc81b5e0951c8700000000","txid":"890e8cdd490fef3c5b1af193d56a09b0fa0f8dab0901640569016cf3b38ea3ac","version":1,"locktime":0,"vin":[{"txid":"9af9a347c19af67a45e13ad8faad4b9a054c33f9f9637ab729baa5f7c020556c","vout":0,"scriptSig":{"asm":"304502210087156fd56f696c05062ae98a9f936ff6fc02dfe3cf9004242814397c356b91cd02200b1a2722ea959985a1cb1bcf1aaaad418831370c52fefc6427a1af7d438d075701
03e75c101452a659c924ea505013f2d799058aeb82acd2c1427c7660a4d2a24f31","hex":"48304502210087156fd56f696c05062ae98a9f936ff6fc02dfe3cf9004242814397c356b91cd02200b1a2722ea959985a1cb1bcf1aaaad418831370c52fefc6427a1af7d438d0757012103e75c101452a659c924ea505013f2d799058aeb82acd2c1427c7660a4d2a24f31"},"sequence":4294967295}],"vout":[{"value":9.98586000,"n":0,"scriptPubKey":{"asm":"OP_DUP
OP_HASH160 a41cdb457972e197e82ab67f42983d5d7f11e480 OP_EQUALVERIFY
OP_CHECKSIG","hex":"76a914a41cdb457972e197e82ab67f42983d5d7f11e48088ac","reqSigs":1,"type":"pubkeyhash","addresses":["mvUhgW1ZcUju181bvwEhmZu2x2sRdbV4y2"]}},{"value":0.00100000,"n":1,"scriptPubKey":{"asm":"OP_HASH160
14ea6747c79c9c7388eca6c029e6cc81b5e0951c
OP_EQUAL","hex":"a91414ea6747c79c9c7388eca6c029e6cc81b5e0951c87","reqSigs":1,"type":"scripthash","addresses":["2Mu9pJkrtssgpgCzVh8vPaam78JL5KaV9VU"]}}],"blockhash":"0000000000005b211d2d8c631aeaf7872e3ffa50b9c3917c0fd4c03ff85c7b65","confirmations":754,"time":1436959816,"blocktime":1436959816},"error":null,"id":"jsonrpc"}
