{"result":{"hex":"0100000001ae5564ca1ce291cde5cc8b17d3f77acaaee00b2d2e00506f665cc9dfa15330a3000000006a47304402206ae6b2e555525eeabd806fc3215ea0071d1d1e3224853e9de4ab47b98464a388022021ffc98dcd7347d138f616b23f97a0662c52b5995a8b0595d7eb4b18189a1581012103026c4bc4a4f3cb13c92700692e5e2269313987e77fbc5d35ac9f01d57d8d7731ffffffff0230b8723b000000001976a914bc0aaf1644d918489803b223bd5aabdd9deef8b388aca0860100000000001976a9142d81b210deb7e22475cd7f2fda0bf582dddc9da788ac00000000","txid":"9142d7a8e96124a36db9708dd21afa4ac81f15a77bd85c06f16e808a4d700da2","version":1,"locktime":0,"vin":[{"txid":"a33053a1dfc95c666f50002e2d0be0aeca7af7d3178bcce5cd91e21cca6455ae","vout":0,"scriptSig":{"asm":"304402206ae6b2e555525eeabd806fc3215ea0071d1d1e3224853e9de4ab47b98464a388022021ffc98dcd7347d138f616b23f97a0662c52b5995a8b0595d7eb4b18189a158101
03026c4bc4a4f3cb13c92700692e5e2269313987e77fbc5d35ac9f01d57d8d7731","hex":"47304402206ae6b2e555525eeabd806fc3215ea0071d1d1e3224853e9de4ab47b98464a388022021ffc98dcd7347d138f616b23f97a0662c52b5995a8b0595d7eb4b18189a1581012103026c4bc4a4f3cb13c92700692e5e2269313987e77fbc5d35ac9f01d57d8d7731"},"sequence":4294967295}],"vout":[{"value":9.97374000,"n":0,"scriptPubKey":{"asm":"OP_DUP
OP_HASH160 bc0aaf1644d918489803b223bd5aabdd9deef8b3 OP_EQUALVERIFY
OP_CHECKSIG","hex":"76a914bc0aaf1644d918489803b223bd5aabdd9deef8b388ac","reqSigs":1,"type":"pubkeyhash","addresses":["mxfE8T6wDhPgtH49owC9EATmUQDfadXxPK"]}},{"value":0.00100000,"n":1,"scriptPubKey":{"asm":"OP_DUP
OP_HASH160 2d81b210deb7e22475cd7f2fda0bf582dddc9da7 OP_EQUALVERIFY
OP_CHECKSIG","hex":"76a9142d81b210deb7e22475cd7f2fda0bf582dddc9da788ac","reqSigs":1,"type":"pubkeyhash","addresses":["mjfa56Keq7PXRKgdPSDB6eWLp4aaAVcj6L"]}}],"blockhash":"0000000000002673a08f2856e80ed02792ed65cfcce2a26eddb74eb4cd518350","confirmations":26,"time":1437060664,"blocktime":1437060664},"error":null,"id":"jsonrpc"}
