{"result":{"hex":"010000000144f2c41439d1ad69123258fb674bd434571105a7db912d7c2b49a78d9ef52f24010000006b483045022100bcd5444965ff1103bbd00b19e8eac252a07ae7fb2f7ad1a05c31f4a3b6efadf70220768947a55baa54b746e163b6a4bdbf06e0c69b00bfd2ce186bfce9032774900701210316cff587a01a2736d5e12e53551b18d73780b83c3bfb4fcf209c869b11b6415effffffff0220a10700000000001976a914aff00113ae336461aa1613eac95c3279b533279388acfc30ee12000000001976a914c01a7ca16b47be50cbdbc60724f701d52d75156688ac00000000","txid":"b252037526ecb616ab5901552abb903f00bf73400a1fc49b5b5bd699b84bce77","version":1,"locktime":0,"vin":[{"txid":"242ff59e8da7492b7c2d91dba705115734d44b67fb58321269add13914c4f244","vout":1,"scriptSig":{"asm":"3045022100bcd5444965ff1103bbd00b19e8eac252a07ae7fb2f7ad1a05c31f4a3b6efadf70220768947a55baa54b746e163b6a4bdbf06e0c69b00bfd2ce186bfce9032774900701
0316cff587a01a2736d5e12e53551b18d73780b83c3bfb4fcf209c869b11b6415e","hex":"483045022100bcd5444965ff1103bbd00b19e8eac252a07ae7fb2f7ad1a05c31f4a3b6efadf70220768947a55baa54b746e163b6a4bdbf06e0c69b00bfd2ce186bfce9032774900701210316cff587a01a2736d5e12e53551b18d73780b83c3bfb4fcf209c869b11b6415e"},"sequence":4294967295}],"vout":[{"value":0.00500000,"n":0,"scriptPubKey":{"asm":"OP_DUP
OP_HASH160 aff00113ae336461aa1613eac95c3279b5332793 OP_EQUALVERIFY
OP_CHECKSIG","hex":"76a914aff00113ae336461aa1613eac95c3279b533279388ac","reqSigs":1,"type":"pubkeyhash","addresses":["mwZE4QfzzriE7nsgHSWbgmtT7s6SDysYvP"]}},{"value":3.17599996,"n":1,"scriptPubKey":{"asm":"OP_DUP
OP_HASH160 c01a7ca16b47be50cbdbc60724f701d52d751566 OP_EQUALVERIFY
OP_CHECKSIG","hex":"76a914c01a7ca16b47be50cbdbc60724f701d52d75156688ac","reqSigs":1,"type":"pubkeyhash","addresses":["my2hmDuD9XjmtQWFu9HyyNAsE5WGSDBKpQ"]}}],"blockhash":"000000000000655a1c5e0f079e0a6cb8a74f4b8d0c97defe8dc67c785898e1b6","confirmations":1699,"time":1436906166,"blocktime":1436906166},"error":null,"id":"jsonrpc"}
