{"result":{"hex":"0100000001200a40edd583b0f671e81bff196c612e65e7a95bd8ee2788674b41d063c60585000000006a47304402203ac7cb9afe1a14189b63807aff301ef6bb8507f6dc0471bcee5362282a8c3e38022012c3bfe9680f013735f0d6d012d6420383c0e3a1dbf010f97be9cc834a93d1f601210221af8672ff613d2ea198d8dadcc387a36ef47d7cba6f541221db61b96aa20149ffffffff024800903b000000001976a91426beab63a5fb7b2103929e91b65f339a2c5b285088aca0860100000000001976a914badcbfae4d83a52dc2c8f68605663adc9d4922a688ac00000000","txid":"250978b77fe1310d6c72239d9e9589d7ac3dc6edf1b2412806ace5104553da34","version":1,"locktime":0,"vin":[{"txid":"8505c663d0414b678827eed85ba9e7652e616c19ff1be871f6b083d5ed400a20","vout":0,"scriptSig":{"asm":"304402203ac7cb9afe1a14189b63807aff301ef6bb8507f6dc0471bcee5362282a8c3e38022012c3bfe9680f013735f0d6d012d6420383c0e3a1dbf010f97be9cc834a93d1f601
0221af8672ff613d2ea198d8dadcc387a36ef47d7cba6f541221db61b96aa20149","hex":"47304402203ac7cb9afe1a14189b63807aff301ef6bb8507f6dc0471bcee5362282a8c3e38022012c3bfe9680f013735f0d6d012d6420383c0e3a1dbf010f97be9cc834a93d1f601210221af8672ff613d2ea198d8dadcc387a36ef47d7cba6f541221db61b96aa20149"},"sequence":4294967295}],"vout":[{"value":9.99293000,"n":0,"scriptPubKey":{"asm":"OP_DUP
OP_HASH160 26beab63a5fb7b2103929e91b65f339a2c5b2850 OP_EQUALVERIFY
OP_CHECKSIG","hex":"76a91426beab63a5fb7b2103929e91b65f339a2c5b285088ac","reqSigs":1,"type":"pubkeyhash","addresses":["mj3pPHtMGarDo47dBuGv99A3EjfyPVMJEJ"]}},{"value":0.00100000,"n":1,"scriptPubKey":{"asm":"OP_DUP
OP_HASH160 badcbfae4d83a52dc2c8f68605663adc9d4922a6 OP_EQUALVERIFY
OP_CHECKSIG","hex":"76a914badcbfae4d83a52dc2c8f68605663adc9d4922a688ac","reqSigs":1,"type":"pubkeyhash","addresses":["mxYzRdJfPk8PcaKSsSzNkX85mMfNcr2CGr"]}}],"blockhash":"000000000000f0292cc4613b146aa99f2b6df820d47d43b01f81d58fb4fce474","confirmations":1715,"time":1436904928,"blocktime":1436904928},"error":null,"id":"jsonrpc"}
