{"result":{"hex":"010000000158741f2fe21d7bbb258bb091da2b03cbc211541047bd4739c69e71520a6048f9010000006b483045022100898b773c1cf095d5c1608a892673ad067387663e00327e7b88dd48cc4eb9cf2a02203a53336afd4440ea52c6a55e07ac60035dc386cb01b5b6810efac018f0346fad01210316cff587a01a2736d5e12e53551b18d73780b83c3bfb4fcf209c869b11b6415effffffff0220a10700000000001976a9142d81b210deb7e22475cd7f2fda0bf582dddc9da788ac18b17c10000000001976a914c01a7ca16b47be50cbdbc60724f701d52d75156688ac00000000","txid":"fb401691795a73e0160252c00af18327a15006fcdf877ccca0c116809669032e","version":1,"locktime":0,"vin":[{"txid":"f948600a52719ec63947bd47105411c2cb032bda91b08b25bb7b1de22f1f7458","vout":1,"scriptSig":{"asm":"3045022100898b773c1cf095d5c1608a892673ad067387663e00327e7b88dd48cc4eb9cf2a02203a53336afd4440ea52c6a55e07ac60035dc386cb01b5b6810efac018f0346fad01
0316cff587a01a2736d5e12e53551b18d73780b83c3bfb4fcf209c869b11b6415e","hex":"483045022100898b773c1cf095d5c1608a892673ad067387663e00327e7b88dd48cc4eb9cf2a02203a53336afd4440ea52c6a55e07ac60035dc386cb01b5b6810efac018f0346fad01210316cff587a01a2736d5e12e53551b18d73780b83c3bfb4fcf209c869b11b6415e"},"sequence":4294967295}],"vout":[{"value":0.00500000,"n":0,"scriptPubKey":{"asm":"OP_DUP
OP_HASH160 2d81b210deb7e22475cd7f2fda0bf582dddc9da7 OP_EQUALVERIFY
OP_CHECKSIG","hex":"76a9142d81b210deb7e22475cd7f2fda0bf582dddc9da788ac","reqSigs":1,"type":"pubkeyhash","addresses":["mjfa56Keq7PXRKgdPSDB6eWLp4aaAVcj6L"]}},{"value":2.76607256,"n":1,"scriptPubKey":{"asm":"OP_DUP
OP_HASH160 c01a7ca16b47be50cbdbc60724f701d52d751566 OP_EQUALVERIFY
OP_CHECKSIG","hex":"76a914c01a7ca16b47be50cbdbc60724f701d52d75156688ac","reqSigs":1,"type":"pubkeyhash","addresses":["my2hmDuD9XjmtQWFu9HyyNAsE5WGSDBKpQ"]}}],"blockhash":"00000000000070f8882a8bbb7272b6f55a74ee588f0da0a9002be1a20860365d","confirmations":1696,"time":1436906181,"blocktime":1436906181},"error":null,"id":"jsonrpc"}
