{"result":{"hex":"01000000015453c241daffdbcc3ff69c54bf94d18f366068eefab0abde029cd1310c9a8a0c010000006a47304402200d9d4e05ed741f7b2a2a2321b9afb786e9144bf440bbb0ba89ea659e5d55ab1e022017e9f8fcef318c50239bcad0f15b5b24c3a1b88bf7d322e8f9a8f9662a5640d501210316cff587a01a2736d5e12e53551b18d73780b83c3bfb4fcf209c869b11b6415effffffff0220a10700000000001976a914d147f4d2921056aa6d8c6a57f8aad4d68523959e88ac6feff923000000001976a914c01a7ca16b47be50cbdbc60724f701d52d75156688ac00000000","txid":"ff768084764a05d1de72628432c0a4419538b2786089ec8ad009f6096bc69fe1","version":1,"locktime":0,"vin":[{"txid":"0c8a9a0c31d19c02deabb0faee6860368fd194bf549cf63fccdbffda41c25354","vout":1,"scriptSig":{"asm":"304402200d9d4e05ed741f7b2a2a2321b9afb786e9144bf440bbb0ba89ea659e5d55ab1e022017e9f8fcef318c50239bcad0f15b5b24c3a1b88bf7d322e8f9a8f9662a5640d501
0316cff587a01a2736d5e12e53551b18d73780b83c3bfb4fcf209c869b11b6415e","hex":"47304402200d9d4e05ed741f7b2a2a2321b9afb786e9144bf440bbb0ba89ea659e5d55ab1e022017e9f8fcef318c50239bcad0f15b5b24c3a1b88bf7d322e8f9a8f9662a5640d501210316cff587a01a2736d5e12e53551b18d73780b83c3bfb4fcf209c869b11b6415e"},"sequence":4294967295}],"vout":[{"value":0.00500000,"n":0,"scriptPubKey":{"asm":"OP_DUP
OP_HASH160 d147f4d2921056aa6d8c6a57f8aad4d68523959e OP_EQUALVERIFY
OP_CHECKSIG","hex":"76a914d147f4d2921056aa6d8c6a57f8aad4d68523959e88ac","reqSigs":1,"type":"pubkeyhash","addresses":["mzbXim4u1Nq4J2kVggu471pZL3ahxNkmE9"]}},{"value":6.03582319,"n":1,"scriptPubKey":{"asm":"OP_DUP
OP_HASH160 c01a7ca16b47be50cbdbc60724f701d52d751566 OP_EQUALVERIFY
OP_CHECKSIG","hex":"76a914c01a7ca16b47be50cbdbc60724f701d52d75156688ac","reqSigs":1,"type":"pubkeyhash","addresses":["my2hmDuD9XjmtQWFu9HyyNAsE5WGSDBKpQ"]}}],"blockhash":"00000000027895524d48c9ecc9de7d9f7b38ecfb93907b50b93cc50e8e05b638","confirmations":1727,"time":1436904923,"blocktime":1436904923},"error":null,"id":"jsonrpc"}
